:100000000C9471000C9499000C9499000C94990034
:100010000C9499000C9499000C9499000C949900FC
:100020000C9499000C9499000C9499000C949900EC
:100030000C9499000C9499000C9499000C949900DC
:100040000C94A1030C9499000C946F030C94490335
:100050000C9499000C9499000C9499000C949900BC
:100060000C9499000C94990007634236B79BD8A76B
:100070001A39685618AEBAAB558C1D3CB7CC5763CD
:10008000BD6DEDFD753EF6177231BF000000803F7B
:1000900000000000240027002A00000000002500C6
:1000A00028002B00040404040404040402020202D5
:1000B000020203030303030301020408102040802B
:1000C00001020408102001020408102000000008AA
:1000D000000201000003040700000000000000000F
:1000E000EB0311241FBECFEFD8E0DEBFCDBF23E06E
:1000F000A6E5B1E001C01D92A232B207E1F711E01E
:10010000A0E0B1E0ECE9F6E102C005900D92A63561
:10011000B107D9F710E0C1E7D0E004C02197FE0194
:100120000E94410BC037D107C9F70E942A040C94E2
:100130004C0B0C940000EDE3F2E0A089B18982E061
:100140008C93A485B5851C92A685B7858FEC8C937E
:10015000108EA489B58986E08C93A289B3898C918D
:1001600080618C93A289B3898C9188608C93A289D9
:10017000B3898C9180688C930288F389E02D80810B
:100180008F7D80830895CF92DF92EF92FF920F933D
:100190001F93CF93DF936C017A018B01C0E0D0E015
:1001A000CE15DF0589F0D8016D918D01D601ED9155
:1001B000FC910190F081E02DC6010995892B11F485
:1001C0007E0102C02196ECCFC701DF91CF911F9134
:1001D0000F91FF90EF90DF90CF900895089580E009
:1001E00090E00895FC01538D448D252F30E0842F3D
:1001F00090E0821B930B541710F0CF96089501974F
:100200000895FC01918D828D981761F0828DDF0138
:10021000A80FB11D5D968C91928D9F5F9F73928FF9
:1002200090E008958FEF9FEF0895FC01918D828DEE
:10023000981731F0828DE80FF11D858D90E00895BB
:100240008FEF9FEF0895FC01918D228D892F90E013
:10025000805C9F4F821B91098F73992708958DE3CE
:1002600092E00E94230121E0892B09F420E0822FF3
:100270000895FC01848DDF01A80FB11DA35ABF4F63
:100280002C91848D90E001968F739927848FA68995
:10029000B7892C93A089B1898C9180648C93938DBC
:1002A000848D981306C00288F389E02D80818F7DAC
:1002B00080830895EF92FF920F931F93CF93DF9364
:1002C000EC0181E0888F9B8D8C8D981305C0E889A7
:1002D000F989808185FD24C0F62E0B8D10E00F5F1B
:1002E0001F4F0F731127E02E8C8DE8120CC00FB634
:1002F00007FCFACFE889F989808185FFF5CFCE0127
:100300000E943901F1CF8B8DFE01E80FF11DE35AF8
:10031000FF4FF0820B8FEA89FB898081806207C0E2
:10032000EE89FF896083E889F98980818064808310
:1003300081E090E0DF91CF911F910F91FF90EF90BE
:100340000895CF93DF93EC01888D8823C9F0EA8963
:10035000FB89808185FD05C0A889B9898C9186FDBE
:100360000FC00FB607FCF5CF808185FFF2CFA889BB
:10037000B9898C9185FFEDCFCE010E943901E7CF7D
:10038000DF91CF91089580E090E0892B29F00E94C1
:100390002F0181110C940000089590E0FC01E453BA
:1003A000FF4F3491FC01E854FF4F2491FC01EC55C0
:1003B000FF4FE491EE2309F43BC0332339F133308E
:1003C00091F038F43130A9F0323001F584B58F7DE9
:1003D00012C0373091F03830A1F03430B9F4809148
:1003E00080008F7D03C0809180008F778093800094
:1003F0000DC084B58F7784BD09C08091B0008F7720
:1004000003C08091B0008F7D8093B000F0E0EE0FCC
:10041000FF1FE656FF4FA591B4918FB7F894EC916A
:10042000611103C020952E2301C02E2B2C938FBF6A
:100430000895CF93DF9390E0FC01E854FF4F24919F
:10044000FC01EC55FF4F8491882361F190E0880F07
:10045000991FFC01E057FF4FC591D491FC01E6566E
:10046000FF4FA591B491611109C09FB7F89488819D
:10047000209582238883EC912E230BC0623061F497
:100480009FB7F8943881822F809583238883EC91DD
:100490002E2B2C939FBF06C08FB7F894E8812E2B8C
:1004A00028838FBFDF91CF9108951F93CF93DF9360
:1004B000182FEB0161E00E941902209711F460E00F
:1004C00004C0CF3FD10539F461E0812FDF91CF9196
:1004D0001F910C94CD01E12FF0E0E453FF4FE49124
:1004E000E330F9F048F4E130B9F0E230A1F584B539
:1004F000806284BDC8BD34C0E730E9F0E83019F14E
:10050000E43049F580918000806280938000D09330
:100510008B00C0938A0024C084B5806884BDC7BDA9
:100520001FC080918000806880938000D0938900F4
:10053000C093880015C08091B00080688093B0009F
:10054000C093B3000DC08091B00080628093B00072
:10055000C093B40005C0C038D1050CF0B5CFAFCF03
:10056000DF91CF911F9108952FB7F89460915B01AF
:1005700070915C0180915D0190915E012FBF0895A3
:100580008F929F92AF92BF92CF92DF92EF92FF92A3
:100590006B017C010E94B4024B015C01C60ED71EA8
:1005A000E81EF91E0E94B402681579058A059B05AC
:1005B00028F0C616D706E806F906A0F7FF90EF90D8
:1005C000DF90CF90BF90AF909F908F9008950E9442
:1005D000470B6115710579F0FB0101900020E9F7E7
:1005E0003197AF01461B570BDC01ED91FC91028066
:1005F000F381E02D099480E090E008954F925F929E
:100600006F927F92EF92FF920F931F93CF93DF939E
:10061000CDB7DEB7A1970FB6F894DEBF0FBECDBF42
:100620007C01FA01CB0119A2223008F42AE08E01E4
:100630000F5D1F4F422E512C612C712CBF01A30165
:1006400092010E941B09F901CA01015011096A3087
:1006500014F4605D01C0695CD8016C93232B242BDA
:10066000252B61F7B801C7010E94E902A1960FB6D8
:10067000F894DEBF0FBECDBFDF91CF911F910F91D8
:10068000FF90EF907F906F905F904F9008950C9443
:10069000E9021F920F920FB60F9211242F933F93EE
:1006A0004F935F936F937F938F939F93AF93BF937A
:1006B000EF93FF938DE392E00E943901FF91EF9158
:1006C000BF91AF919F918F917F916F915F914F916A
:1006D0003F912F910F900FBE0F901F9018951F9272
:1006E0000F920FB60F9211242F938F939F93EF9336
:1006F000FF93E0914D02F0914E028081E091530210
:10070000F091540282FD12C09081809156028F5F59
:100710008F7320915702821751F0E0915602F0E05A
:10072000E35CFD4F958F8093560201C08081FF915D
:10073000EF919F918F912F910F900FBE0F901F906F
:1007400018951F920F920FB60F9211242F933F937B
:100750008F939F93AF93BF9380915B0190915C01C6
:10076000A0915D01B0915E0130915A0123E0230F09
:100770002D3720F40196A11DB11D05C026E8230FD9
:100780000296A11DB11D20935A0180935B019093A5
:100790005C01A0935D01B0935E0180915601909140
:1007A0005701A0915801B09159010196A11DB11DA9
:1007B0008093560190935701A0935801B09359012B
:1007C000BF91AF919F918F913F912F910F900FBE4D
:1007D0000F901F901895EDE3F2E01382128288EEDD
:1007E00093E0A0E0B0E084839583A683B78389E09B
:1007F00091E09183808385EC90E09587848784ECF9
:1008000090E09787868780EC90E0918B808B81ECDD
:1008100090E0938B828B82EC90E0958B848B86ECBE
:1008200090E0978B868B118E128E138E148EEAEDCC
:10083000F2E01682178210861186128613861486BD
:10084000158616861786108A118A128A138A148AC8
:10085000158A0895789484B5826084BD84B58160DA
:1008600084BD85B5826085BD85B5816085BD80917B
:100870006E00816080936E001092810080918100F3
:1008800082608093810080918100816080938100EB
:10089000809180008160809380008091B1008460AD
:1008A0008093B1008091B00081608093B00080910E
:1008B0007A00846080937A0080917A0082608093CD
:1008C0007A0080917A00816080937A0080917A002A
:1008D000806880937A001092C10010921E031092DB
:1008E0001F0310922003109221031092DC02109239
:1008F000DD021092DE021092DF0268EB7BE080E006
:1009000090E00E94C0028DE392E090931D038093DB
:100910001C030E949B000E94B4026093DC0270934F
:10092000DD028093DE029093DF0267E171E0809147
:100930001C0390911D030E9447036AE070E080E071
:1009400090E00E94C00281E08093F0020E949B0030
:1009500061E08DE00E94190261E08CE00E941902C2
:1009600061E085E00E94190260E082E00E941902C5
:1009700060E083E00E94190260E08AE00E94CD01FD
:1009800061E08CE00E94CD01609100017091010155
:1009900080910201909103010E94560A85E00E9415
:1009A000550269E271E08DE392E00E944703222440
:1009B000239430E4332E0FEF13E00E94B402672B30
:1009C000682B692B41F40E94B402623071058105E5
:1009D000910508F40FC10E94B4026093390270932C
:1009E0003A0280933B0290933C02C0903502D09033
:1009F0003602E0903702F09038026C157D058E05C6
:100A00009F0540F46093350270933602809337025D
:100A100090933802C0903502D0903602E0903702B1
:100A2000F09038029B01AC012C193D094E095F0979
:100A300069017A013AEFC316D104E104F10408F424
:100A4000D9C0609335027093360280933702909339
:100A5000380284EF91E0A0E0B0E08093E802909348
:100A6000E902A093EA02B093EB021092EC0210921A
:100A7000ED021092EE021092EF028091E00290914E
:100A8000E102A091E202B091E3028093E40290932C
:100A9000E502A093E602B093E7020E94B4026093DD
:100AA000E0027093E1028093E2029093E3020E94DD
:100AB000B4026093DC027093DD028093DE029093B7
:100AC000DF020E94B4026B017C0166E371E0809159
:100AD0001C0390911D030E9447032AE041E050E06F
:100AE00060E070E080911C0390911D030E94FE0263
:100AF0006DE371E080911C0390911D030E944703F8
:100B00002AE0B701A60180911C0390911D030E9469
:100B1000FE026FE371E080911C0390911D030E941F
:100B200047038091E0029091E102A091E202B0912E
:100B3000E302B701A601481B590B6A0B7B0B2AE0A5
:100B400080911C0390911D030E94FE026FE371E0EF
:100B500080911C0390911D030E9447034091E00285
:100B60005091E1026091E2027091E3028091E4020F
:100B70009091E502A091E602B091E702481B590B63
:100B80006A0B7B0B2AE080911C0390911D030E944D
:100B9000FE0261E471E080911C0390911D030E94AC
:100BA00047030E94B402AB01BC012AE080911C0300
:100BB00090911D030E94FE02C0911C03D0911D0361
:100BC00063E471E0CE010E94E90266E271E0CE01C9
:100BD0000E94E90262E070E080E090E00E94C002C2
:100BE0000E94B4026093E0027093E1028093E202FB
:100BF0009093E302809104012DEC3CEC4CEC5DE31E
:100C0000882359F0609100017091010180910201E7
:100C1000909103010E943E090AC060910001709109
:100C2000010180910201909103010E943D096093AE
:100C300000017093010180930201909303012DEC58
:100C40003CEC4CEC5DE3609131027091320280919A
:100C50003302909134020E943D09609331027093F7
:100C600032028093330290933402C0900001D090FE
:100C70000101E0900201F090030120E030E048EC37
:100C800052E4C701B6010E94B30A87FD03C0109267
:100C900004010BC020E030E0A901C701B6010E94A9
:100CA000F707181614F02092040130927C0080910E
:100CB0007A00806480937A0080917A0086FDFCCF70
:100CC000809178002091790090E0922BB801681B08
:100CD000790B7093300260932F02072E000C880B63
:100CE000990B0E94FE076B017C014B015C019B018B
:100CF000AC010E942E0B882319F06AE471E01AC03F
:100D000026013701E89477F82FEF3FEF4FE75FE7D1
:100D1000C301B2010E942E0B811111C02FEF3FEFD2
:100D20004FE75FE7C301B2010E94F70718163CF4D2
:100D30006EE471E08DE392E00E94E9028BC02FEF38
:100D40003FEF4FE75FE4C701B6010E94B30A1816F0
:100D50001CF462E571E0EECF2FEF3FEF4FE75FEC61
:100D6000C701B6010E94F70787FDF3CF20E030E00E
:100D7000A901C701B6010E94F70787FF11C0E091E2
:100D80003D02F0913E020190F081E02D6DE28DE395
:100D900092E0099546015701B7FAB094B7F8B094BC
:100DA0002AE037ED43EA5BE3C501B4010E943E0946
:100DB0004B015C010E945D0A6B017C010E94FC07F3
:100DC0009B01AC01C501B4010E943D094B015C01CE
:100DD0002AE0B701A6018DE392E00E94FE02E091B5
:100DE0003D02F0913E020190F081E02D6EE28DE334
:100DF00092E0099520E030E040E251E4C501B40101
:100E00000E945D086B017C010E945D0A4B01A12CD0
:100E1000B12C2AE0B501A4018DE392E00E94FE020C
:100E2000C501B4010E94FC079B01AC01C701B601DA
:100E30000E943D0920E030E040E251E40E945D085C
:100E40000E945D0AAB0160E070E02AE08DE392E071
:100E50000E94FE0266E271E08DE392E00E94E902E8
:100E600060912F0270913002072E000C880B990BB5
:100E70000E94FE076B017C01209131023091320209
:100E800040913302509134020E94B30A18164CF478
:100E9000C0923102D0923202E0923302F0923402D8
:100EA00016C020912B0230912C0240912D025091BE
:100EB0002E02C701B6010E94F70787FF08C0C09243
:100EC0002B02D0922C02E0922D02F0922E02809101
:100ED000610190916201FC01EE0FFF1FEE0FFF1FF9
:100EE000ED59FE4FC082D182E282F38201968233B5
:100EF000910529F0909362018093610104C01092E2
:100F00006201109261010E94B4026B017C01809128
:100F10005F0190916001D601A81BB90BA436B10501
:100F20000CF462C0C3E6D1E060E070E0CB0129912F
:100F30003991499159910E943E09B2E0CB32DB07C9
:100F4000B1F780902B0290902C02A0902D02B090CF
:100F50002E0220E030E048E452E40E94AA090E94F8
:100F6000560A072E000C880B990B0E94FE07A5015C
:100F700094010E943D0920E030E048EC52E40E94D8
:100F80005D082B013C01A501940160913102709133
:100F9000320280913302909134020E943D099B01FC
:100FA000AC01C301B2010E94AA090E94560A072E91
:100FB000000C880B990B0E94FE0723EA31E243E6FE
:100FC0005DE30E945D080E94240A20E030E040E8D2
:100FD0005FE30E943D090E94560A85E00E94550287
:100FE000D0926001C0925F010E94C301E6CC0E94D2
:100FF000390808F481E00895E89409C097FB3EF4AD
:1010000090958095709561957F4F8F4F9F4F992355
:10101000A9F0F92F96E9BB279395F69587957795D3
:101020006795B795F111F8CFFAF4BB0F11F460FF93
:101030001BC06F5F7F4F8F4F9F4F16C0882311F0EB
:1010400096E911C0772321F09EE8872F762F05C0FF
:10105000662371F096E8862F70E060E02AF09A959A
:10106000660F771F881FDAF7880F9695879597F98F
:101070000895990F0008550FAA0BE0E8FEEF161629
:101080001706E807F907C0F012161306E407F5077C
:1010900098F0621B730B840B950B39F40A2661F0F0
:1010A000232B242B252B21F408950A2609F4A14093
:1010B000A6958FEF811D811D08950E9470080C94E4
:1010C000E1080E94D30838F00E94DA0820F0952346
:1010D00011F00C94CA080C94D00811240C94150932
:1010E0000E94F20870F3959FC1F3950F50E0551FD1
:1010F000629FF001729FBB27F00DB11D639FAA276D
:10110000F00DB11DAA1F649F6627B00DA11D661FBB
:10111000829F2227B00DA11D621F739FB00DA11DDC
:10112000621F839FA00D611D221F749F3327A00D96
:10113000611D231F849F600D211D822F762F6A2F32
:1011400011249F5750409AF0F1F088234AF0EE0F97
:10115000FF1FBB1F661F771F881F91505040A9F7C4
:101160009E3F510580F00C94CA080C9415095F3F0E
:10117000E4F3983ED4F3869577956795B795F79500
:10118000E7959F5FC1F7FE2B880F911D9695879578
:1011900097F9089597F99F6780E870E060E00895F7
:1011A0009FEF80EC089500240A941616170618067F
:1011B0000906089500240A9412161306140605065B
:1011C0000895092E0394000C11F4882352F0BB0FEC
:1011D00040F4BF2B11F460FF04C06F5F7F4F8F4F4F
:1011E0009F4F089557FD9058440F551F59F05F3F8A
:1011F00071F04795880F97FB991F61F09F3F79F039
:1012000087950895121613061406551FF2CF4695BA
:10121000F1DF08C0161617061806991FF1CF86953C
:101220007105610508940895E894BB276627772720
:10123000CB0197F90895A1E21A2EAA1BBB1BFD0151
:101240000DC0AA1FBB1FEE1FFF1FA217B307E407A5
:10125000F50720F0A21BB30BE40BF50B661F771FFD
:10126000881F991F1A9469F76095709580959095DD
:101270009B01AC01BD01CF0108955058BB27AA279F
:101280000E9455090C94E1080E94D30838F00E948E
:10129000DA0820F039F49F3F19F426F40C94D008B2
:1012A0000EF4E095E7FB0C94CA08E92F0E94F208BF
:1012B00058F3BA17620773078407950720F079F48B
:1012C000A6F50C9414090EF4E0950B2EBA2FA02D60
:1012D0000B01B90190010C01CA01A0011124FF27E3
:1012E000591B99F0593F50F4503E68F11A16F040DE
:1012F000A22F232F342F4427585FF3CF46953795DD
:101300002795A795F0405395C9F77EF41F16BA0BA1
:10131000620B730B840BBAF09150A1F0FF0FBB1F4F
:10132000661F771F881FC2F70EC0BA0F621F731F98
:10133000841F48F4879577956795B795F7959E3FF5
:1013400008F0B0CF9395880F08F09927EE0F979586
:10135000879508950E94BE090C94E1080E94DA085E
:1013600058F00E94D30840F029F45F3F29F00C9414
:10137000CA0851110C9415090C94D0080E94F20867
:1013800068F39923B1F3552391F3951B550BBB27B4
:10139000AA2762177307840738F09F5F5F4F220FF9
:1013A000331F441FAA1FA9F335D00E2E3AF0E0E8F0
:1013B00032D091505040E695001CCAF72BD0FE2F3A
:1013C00029D0660F771F881FBB1F261737074807CE
:1013D000AB07B0E809F0BB0B802DBF01FF27935886
:1013E0005F4F3AF09E3F510578F00C94CA080C9478
:1013F00015095F3FE4F3983ED4F38695779567959A
:10140000B795F7959F5FC9F7880F911D96958795BA
:1014100097F90895E1E0660F771F881FBB1F6217D9
:1014200073078407BA0720F0621B730B840BBA0B97
:10143000EE1F88F7E095089529F416F00C94CA0879
:101440000C9414090C94D0080E94FA08A8F396385A
:10145000A0F707F80F92E8942BE33AEA48EB5FE72E
:101460000E9473080F920F920F924DB75EB70F92C2
:101470000E94FA0AE8E6F0E00E948C0A4F915F9120
:10148000EF91FF91E595EE1FFF1F49F0FE57E068D1
:101490004427EE0F441FFA95E1F74195550B0E9442
:1014A000C40A0F9007FE0C94B80A08950E945D0AC2
:1014B0006894B1110C94150908950E94FA0888F0F7
:1014C0009F5798F0B92F9927B751B0F0E1F0660F08
:1014D000771F881F991F1AF0BA95C9F714C0B13049
:1014E00091F00E941409B1E008950C941409672F3B
:1014F000782F8827B85F39F0B93FCCF38695779578
:101500006795B395D9F73EF4909580957095619560
:101510007F4F8F4F9F4F0895DF93CF931F930F936C
:10152000FF92EF92DF927B018C01689406C0DA2E65
:10153000EF010E947008FE01E894A5912591359174
:1015400045915591A6F3EF010E945509FE019701BF
:10155000A801DA9469F7DF90EF90FF900F911F9147
:10156000CF91DF9108950E94390808F48FEF089514
:101570009B01AC0160E070E080E89FE30C94AA0955
:101580000C94CA080C94330B0E94FA08D8F39923E0
:10159000C9F3940F511DA3F39150504094F059F0AA
:1015A000882332F0660F771F881F91505040C1F793
:1015B0009E3F51052CF7880F911D9695879597F9B9
:1015C00008955F3FACF0983E9CF0BB2786957795D9
:1015D0006795B79508F4B1609395C1F7BB0F58F7BD
:1015E00011F460FFE8CF6F5F7F4F8F4F9F4FE3CFC6
:1015F0000C941509FA01DC01AA0FBB1F9B01AC0179
:10160000BF5728F4222733274427507820C0B751EA
:1016100090F4AB2F0024469537952795011CA39590
:10162000D2F3002071F0220F331F441FB395DAF379
:101630000ED00C943D0961307105A0E88A07B946C7
:1016400030F49B01AC016627772788279078309685
:1016500021F0208331834283538308950E94390807
:10166000880B990B08959F3F31F0915020F4879596
:1016700077956795B795880F911D9695879597F9FA
:101680000895EE0FFF1F0590F491E02D099481E07D
:0C16900090E0F8940C944C0BF894FFCF01
:10169C000000803F01000000005A01C300F200A1CD
:1016AC0001230101011501564D4450565F317C3127
:1016BC005F564D4450560D0A00496E697469616C51
:1016CC00697A65642E00564D4450455F003A323AB3
:1016DC00007C005F564D445045006E616E00696E93
:0616EC0066006F76660047
:107E0000112484B714BE81FFF0D085E080938100F7
:107E100082E08093C00088E18093C10086E0809377
:107E2000C20080E18093C4008EE0C9D0259A86E02C
:107E300020E33CEF91E0309385002093840096BBD3
:107E4000B09BFECF1D9AA8958150A9F7CC24DD24C4
:107E500088248394B5E0AB2EA1E19A2EF3E0BF2EE7
:107E6000A2D0813461F49FD0082FAFD0023811F036
:107E7000013811F484E001C083E08DD089C08234E0
:107E800011F484E103C0853419F485E0A6D080C0E4
:107E9000853579F488D0E82EFF2485D0082F10E0AE
:107EA000102F00270E291F29000F111F8ED06801E7
:107EB0006FC0863521F484E090D080E0DECF843638
:107EC00009F040C070D06FD0082F6DD080E0C81688
:107ED00080E7D80618F4F601B7BEE895C0E0D1E017
:107EE00062D089930C17E1F7F0E0CF16F0E7DF06D8
:107EF00018F0F601B7BEE89568D007B600FCFDCFD4
:107F0000A601A0E0B1E02C9130E011968C91119780
:107F100090E0982F8827822B932B1296FA010C0160
:107F200087BEE89511244E5F5F4FF1E0A038BF0790
:107F300051F7F601A7BEE89507B600FCFDCF97BE46
:107F4000E89526C08437B1F42ED02DD0F82E2BD052
:107F50003CD0F601EF2C8F010F5F1F4F84911BD097
:107F6000EA94F801C1F70894C11CD11CFA94CF0C13
:107F7000D11C0EC0853739F428D08EE10CD085E9AC
:107F80000AD08FE07ACF813511F488E018D01DD067
:107F900080E101D065CF982F8091C00085FFFCCF94
:107FA0009093C60008958091C00087FFFCCF809118
:107FB000C00084FD01C0A8958091C6000895E0E648
:107FC000F0E098E1908380830895EDDF803219F02E
:107FD00088E0F5DFFFCF84E1DECF1F93182FE3DFCA
:107FE0001150E9F7F2DF1F91089580E0E8DFEE27F6
:047FF000FF270994CA
:027FFE00040479
:0400000300007E007B
:00000001FF