:100000000C9472000C949A000C949A000C949A0030
:100010000C949A000C949A000C949A000C949A00F8
:100020000C949A000C949A000C949A000C949A00E8
:100030000C949A000C949A000C949A000C949A00D8
:100040000C9428040C949A000C94F6030C94D0039E
:100050000C949A000C949A000C949A000C949A00B8
:100060000C949A000C949A0007634236B79BD8A769
:100070001A39685618AEBAAB558C1D3CB7CC5763CD
:10008000BD6DEDFD753EF6177231BF000000803F7B
:1000900000000000240027002A00000000002500C6
:1000A00028002B00040404040404040402020202D5
:1000B000020203030303030301020408102040802B
:1000C00001020408102001020408102000000008AA
:1000D000000201000003040700000000000000000F
:1000E00072040E0811241FBECFEFD8E0DEBFCDBFD3
:1000F00024E0A4E3B1E001C01D92AA39B207E1F700
:1001000011E0A0E0B1E0EEE0FBE102C005900D924D
:10011000A433B107D9F710E0C1E7D0E004C02197BC
:10012000FE010E94780BC037D107C9F70E94140561
:100130000C947A0D0C940000CF92DF92EF92FF9214
:100140000F931F93CF93DF936C017A018B01C0E073
:10015000D0E0CE15DF0581F0D8016D918D01D6017B
:10016000ED91FC910190F081E02DC6010995892B5C
:1001700011F02196EECF7E01C701DF91CF911F9143
:100180000F91FF90EF90DF90CF900895089580E059
:1001900090E00895FC01538D448D252F30E0842F8D
:1001A00090E0821B930B541710F0CF96089501979F
:1001B0000895FC01918D828D981761F0828DDF0189
:1001C000A80FB11D5D968C91928D9F5F9F73928F4A
:1001D00090E008958FEF9FEF0895FC01918D828D3F
:1001E000981731F0828DE80FF11D858D90E008950C
:1001F0008FEF9FEF0895FC01918D228D892F90E064
:10020000805C9F4F821B91098F73992708958FE31C
:1002100091E00E94FB0021E0892B09F420E0822F6D
:100220000895FC01848DDF01A80FB11DA35ABF4FB3
:100230002C91848D90E001968F739927848FA689E5
:10024000B7892C93A089B1898C91837080648C9339
:10025000938D848D981306C00288F389E02D8081E8
:100260008F7D80830895EF92FF920F931F93CF931A
:10027000DF93EC0181E0888F9B8D8C8D981305C0F6
:10028000E889F989808185FD26C0F62E0B8D10E066
:100290000F5F1F4F0F731127E02E8C8DE8120CC0DB
:1002A0000FB607FCFACFE889F989808185FFF5CF81
:1002B000CE010E941101F1CF8B8DFE01E80FF11DDF
:1002C000E35AFF4FF0829FB7F8940B8FEA89FB89BE
:1002D000808180620AC09FB7F894EE89FF896083AD
:1002E000E889F98980818370806480839FBF81E081
:1002F00090E0DF91CF911F910F91FF90EF900895C3
:10030000CF93DF93EC01888D8823C9F0EA89FB89BC
:10031000808185FD05C0A889B9898C9186FD0FC0B3
:100320000FB607FCF5CF808185FFF2CFA889B98988
:100330008C9185FFEDCFCE010E941101E7CFDF91B7
:10034000CF91089580E090E0892B29F00E94070169
:1003500081110C940000089590E0FC01E453FF4FDC
:100360002491FC01E854FF4F3491FC01EC55FF4F00
:10037000E491EE2309F43CC0222339F1233091F0BB
:1003800038F42130A9F0223001F584B58F7D12C0F8
:10039000273091F02830A1F02430B9F4809180000A
:1003A0008F7D03C0809180008F77809380000DC087
:1003B00084B58F7784BD09C08091B0008F7703C06A
:1003C0008091B0008F7D8093B000F0E0EE0FFF1FB2
:1003D000E656FF4FA591B4919FB7F894611104C000
:1003E0008C913095382302C0EC913E2B3C939FBFFB
:1003F0000895CF93DF9390E0FC01E854FF4F2491E0
:10040000FC01EC55FF4F8491882361F190E0880F47
:10041000991FFC01E057FF4FC591D491FC01E656AE
:10042000FF4FA591B491611109C09FB7F8948881DD
:10043000209582238883EC912E230BC0623061F4D7
:100440009FB7F8948881322F309583238883EC916D
:100450002E2B2C939FBF06C08FB7F894E8812E2BCC
:1004600028838FBFDF91CF9108951F93CF93DF93A0
:10047000182FEB0161E00E94F901209711F460E070
:1004800004C0CF3FD10539F461E0812FDF91CF91D6
:100490001F910C94AC01E12FF0E0E453FF4FE49185
:1004A000E330F9F048F4E130B9F0E230A1F584B579
:1004B000806284BDC8BD34C0E730E9F0E83019F18E
:1004C000E43049F580918000806280938000D09371
:1004D0008B00C0938A0024C084B5806884BDC7BDEA
:1004E0001FC080918000806880938000D093890035
:1004F000C093880015C08091B00080688093B000E0
:10050000C093B3000DC08091B00080628093B000B2
:10051000C093B40005C0C038D1050CF0B5CFAFCF43
:10052000DF91CF911F9108958E3008F08E50877023
:10053000806480937C0080917A00806480937A004C
:1005400080917A0086FDFCCF80917800209179001F
:1005500090E0922B0895CF93DF93EC0188819981ED
:10056000009711F00E94160C198218821D821C82BD
:100570001B821A82DF91CF9108950E94650D0F931F
:100580001F93CF93DF93EC0188819981009729F025
:100590002A813B812617370788F48B016F5F7F4FD5
:1005A0000E949F0C009761F0998388831B830A83C4
:1005B0002C813D81232B11F4FC01108281E001C0CC
:1005C00080E0DF91CF911F910F910895EF92FF92FC
:1005D0000F931F93CF93DF93EC017B018A01BA0144
:1005E0000E94BF02811104C0CE010E94AB0207C06D
:1005F0001D830C83B701888199810E94730DCE0100
:10060000DF91CF911F910F91FF90EF900895CF93BD
:10061000DF93EC01FB018617970761F06081718120
:100620006115710529F0448155810E94E60202C0DE
:100630000E94AB02CE01DF91CF910895FC0111829F
:10064000108213821282158214826115710551F095
:10065000FB0101900020E9F73197AF01461B570BD2
:100660000C94E6020895AF92BF92CF92DF92EF9280
:10067000FF920F931F93CF93DF93CDB7DEB72C97E5
:100680000FB6F894DEBF0FBECDBF60E271E0CE01C1
:1006900007960E941E0388E0C82E82E0D82EE12C27
:1006A000F12C8091060290910702E816F9060CF0F1
:1006B0004DC01A8219821C821B821E821D82B601C5
:1006C000CE0101960E9407030D811E810C5F1F4F12
:1006D000B801CE0101960E94BF02882309F45BC0D5
:1006E00029813A818D819E8160E271E0820F931FA2
:1006F0000E94730D1E830D838D819E81A980BA8017
:10070000A114B104C1F00097B1F00B851C85080F4E
:10071000191FB801CE0107960E94BF02882359F025
:100720002F8138858B859C85B501820F931F0E9490
:10073000730D1C870B8789819A810E94160C8FEF9D
:10074000E81AF80A86E0C80ED11CABCF4B855C8551
:100750006F8178858FE391E00E949C0042E050E039
:1007600065E271E08FE391E00E949C008F819885A3
:100770000E94160C2C960FB6F894DEBF0FBECDBFAC
:10078000DF91CF911F910F91FF90EF90DF90CF906D
:10079000BF90AF900895CE0101960E94AB02ACCFFE
:1007A0001F920F920FB60F9211242F933F934F93E6
:1007B0005F936F937F938F939F93AF93BF93EF93C9
:1007C000FF938FE391E00E941101FF91EF91BF91A0
:1007D000AF919F918F917F916F915F914F913F91D9
:1007E0002F910F900FBE0F901F9018951F920F9290
:1007F0000FB60F9211242F938F939F93EF93FF9334
:10080000E0914F01F09150018081E0915501F0910C
:10081000560182FD12C09081809158018F5F8F73C5
:1008200020915901821751F0E0915801F0E0E15C0C
:10083000FE4F958F8093580101C08081FF91EF9109
:100840009F918F912F910F900FBE0F901F90189531
:100850001F920F920FB60F9211242F933F938F93F5
:100860009F93AF93BF938091390190913A01A091EA
:100870003B01B0913C013091380123E0230F2D372B
:1008800020F40196A11DB11D05C026E8230F029694
:10089000A11DB11D209338018093390190933A0135
:1008A000A0933B01B0933C018091340190913501BC
:1008B000A0913601B09137010196A11DB11D809321
:1008C000340190933501A0933601B0933701BF9165
:1008D000AF919F918F913F912F910F900FBE0F90ED
:1008E0001F901895CF93DF93EFE3F1E0138212820C
:1008F00088EE93E0A0E0B0E084839583A683B7837D
:1009000082E191E09183808385EC90E095878487F4
:1009100084EC90E09787868780EC90E0918B808BC9
:1009200081EC90E0938B828B82EC90E0958B848BB2
:1009300086EC90E0978B868B118E128E138E148E20
:10094000E0E2F2E086E792E0DF019C011D92215097
:100950003040E1F789E190E09383828386E990E07B
:10096000978B868BCFEFD1E01D821C8284E090E0D4
:1009700098878F8367E271E088E092E00E941E030F
:1009800067E271E08EE092E00E941E0367E271E090
:1009900084E192E00E941E0367E271E08AE192E046
:1009A0000E941E0321E02E8380E090E0A8ECB2E4D8
:1009B00088839983AA83BB83ECEDF1E040E050E0AB
:1009C00060E87FE340835183628373834AE057ED9D
:1009D00063E27CE344835583668377832087418782
:1009E000528763877487158616861786108A818BCF
:1009F000928BA38BB48B168A158A178A108E118E50
:100A0000128E8FE892ECA5E7BDE3838F948FA58FBC
:100A1000B68F8DEC9CECACECBDE3878F90A3A1A3CB
:100A2000B2A3DF91CF910895CF93DF93CDB7DEB717
:100A300062970FB6F894DEBF0FBECDBF789484B531
:100A4000826084BD84B5816084BD85B5826085BDCA
:100A500085B5816085BD80916E00816080936E0058
:100A6000109281008091810082608093810080914A
:100A700081008160809381008091800081608093FB
:100A800080008091B10084608093B1008091B000BB
:100A900081608093B00080917A00846080937A00B6
:100AA00080917A00826080937A0080917A008160E0
:100AB00080937A0080917A00806880937A00109207
:100AC000C100E0914F01F091500182E08083E091FC
:100AD0004B01F0914C011082E0914D01F0914E01DB
:100AE0008AE1808310925701E0915301F091540103
:100AF00086E08083E0915101F09152018081806114
:100B00008083E0915101F09152018081886080835F
:100B1000E0915101F0915201808180688083E091E1
:100B20005101F091520180818F7D808361E080913D
:100B300000010E94F90161E0809102010E94F90127
:100B400060E0809104010E94F90168E271E0CE0149
:100B500001960E941E03BE016F5F7F4F88E092E006
:100B60000E94070389819A810E94160C6EE271E04F
:100B7000CE0101960E941E03BE016F5F7F4F8EE083
:100B800092E00E94070389819A810E94160C80914D
:100B9000050281110E94330308E012E0E12CF12CE0
:100BA0008091060290910702E816F9060CF064C0E5
:100BB00040E050E067E271E0C8010E94E6022FEFDA
:100BC000E21AF20A0A5F1F4FEBCFB801110F880B30
:100BD000990B0E9425089B01AC01C501B4010E943C
:100BE000E609609324027093250280932602909375
:100BF00027022F8138853093210220932002809193
:100C00003D0190913E014F815885481B590BCA0107
:100C10002F813885032E000C440B550B2F87388B02
:100C2000498B5A8B843691050CF0D4C06F85788936
:100C300089899A890E9425086B017C0160910302D1
:100C400070910402072E000C880B990B0E94250856
:100C50009B01AC01C701B6010E9479092091FF01F7
:100C60003091000240910102509102020E94EF0A6D
:100C700087FFC8C10E94A2012091E5013091E601E1
:100C80004091E7015091E80160912C0270912D0292
:100C900080912E0290912F020E94790960932C027C
:100CA00070932D0280932E0290932F028091020167
:100CB0000E9494029A95BC01990F880B990B0E948F
:100CC000250820E030E0A9010E94EF0A181634F44C
:100CD000809102010E9494029A950FC080910201B6
:100CE0000E9494029A95BC01990F880B990B0E945F
:100CF000250890580E94920ACB019093310280936C
:100D00003002E0903602F0903702C0909004D0900C
:100D100091048601000F111F000F111F085C1D4F69
:100D2000BC01990F880B990B0E942508F80160837C
:100D3000718382839383FFEFCF1ADF0AEC14FD04E3
:100D400029F0D0929104C092900404C010929104B2
:100D5000109290048FB7F8942091390130913A01A4
:100D600040913B0150913C012F83388749875A8736
:100D70008FBF80912002909121022F813885281BFE
:100D8000390B8091220290912302281739070CF425
:100D900036CF009136021091370288E3C82E82E0E8
:100DA000D82EE12CF12C812C912C5401E016F10667
:100DB0000CF00BCFF60121913191419151916F01CE
:100DC000C501B4010E947A094B015C01FFEFEF1AE3
:100DD000FF0AECCF4090240250902502609026023A
:100DE0007090270220912C0230912D0240912E020A
:100DF00050912F02C301B2010E94EF0A181644F469
:100E000040922C0250922D0260922E0270922F027C
:100E1000C0902802D0902902E0902A02F0902B0284
:100E20008090F7019090F801A090F901B090FA013C
:100E3000A701960160912C0270912D0280912E02E3
:100E400090912F020E947909A50194010E941E0829
:100E500087FF0EC0A5019401C701B6010E947A095F
:100E600060932C0270932D0280932E0290932F0298
:100E70008090E9019090EA01A090EB01B090EC0124
:100E8000A50194016091ED017091EE018091EF0157
:100E90009091F0010E9479096B877C878D879E87EE
:100EA000C301B2010E94920A072E000C880B990B15
:100EB0000E942508A70196010E9479092B853C858F
:100EC0004D855E850E9484082B013C01A701960197
:100ED00060912C0270912D0280912E0290912F0230
:100EE0000E9479099B01AC01C301B2010E94E6098D
:100EF000A50194010E947A090E94920A072E000C13
:100F0000880B990B0E94250823EA31E243E65DE352
:100F10000E9484080E94600A20E030E040E85FE31D
:100F20000E9479090E94920A809100010E94350274
:100F3000C0902802D0902902E0902A02F0902B0263
:100F400060912402709125028091260290912702DF
:100F50000E94920A072E000C880B990B0E9425080C
:100F6000A70196010E9479092B853C854D855E85F8
:100F70000E9484082B013C01A701960160912C027C
:100F800070912D0280912E0290912F020E9479097A
:100F90009B01AC01C301B2010E94E609A5019401C5
:100FA0000E947A090E94920A072E000C880B990B66
:100FB0000E94250823EA31E243E65DE30E948408AB
:100FC0000E94600A20E030E040E85FE30E94790977
:100FD0000E94920A8DE00E9435026F857889898986
:100FE0009A890E94250860939204709393048093D9
:100FF0009404909395044F81588550933E014093FB
:101000003D0114CE8091050281110E9433038F812E
:10101000988590930402809303022CCECF93DF93A4
:10102000CAE1D2E0888199810E94160C269782E05D
:10103000C230D807B9F7DF91CF9108950E946008B8
:1010400008F481E00895E89409C097FB3EF4909578
:101050008095709561957F4F8F4F9F4F9923A9F091
:10106000F92F96E9BB279395F69587957795679520
:10107000B795F111F8CFFAF4BB0F11F460FF1BC064
:101080006F5F7F4F8F4F9F4F16C0882311F096E9F7
:1010900011C0772321F09EE8872F762F05C06623A5
:1010A00071F096E8862F70E060E02AF09A95660F5E
:1010B000771F881FDAF7880F9695879597F9089517
:1010C000990F0008550FAA0BE0E8FEEF1616170659
:1010D000E807F907C0F012161306E407F50798F0C1
:1010E000621B730B840B950B39F40A2661F0232BDA
:1010F000242B252B21F408950A2609F4A140A69556
:101100008FEF811D811D08950E9497080C94080996
:101110000E94FA0838F00E94010920F0952311F08E
:101120000C94F1080C94F70811240C943C090E94CB
:10113000190970F3959FC1F3950F50E0551F629FF9
:10114000F001729FBB27F00DB11D639FAA27F00D20
:10115000B11DAA1F649F6627B00DA11D661F829F47
:101160002227B00DA11D621F739FB00DA11D621F2C
:10117000839FA00D611D221F749F3327A00D611D49
:10118000231F849F600D211D822F762F6A2F11242B
:101190009F5750409AF0F1F088234AF0EE0FFF1F5E
:1011A000BB1F661F771F881F91505040A9F79E3FB5
:1011B000510580F00C94F1080C943C095F3FE4F376
:1011C000983ED4F3869577956795B795F795E7950B
:1011D0009F5FC1F7FE2B880F911D9695879597F914
:1011E000089597F99F6780E870E060E008959FEFA9
:1011F00080EC089500240A941616170618060906AE
:10120000089500240A94121613061406050608957C
:10121000092E0394000C11F4882352F0BB0F40F404
:10122000BF2B11F460FF04C06F5F7F4F8F4F9F4F44
:10123000089557FD9058440F551F59F05F3F71F0C6
:101240004795880F97FB991F61F09F3F79F087952D
:101250000895121613061406551FF2CF4695F1DFB6
:1012600008C0161617061806991FF1CF8695710546
:10127000610508940895E894BB2766277727CB017A
:1012800097F908952F923F924F925F926F927F92BB
:101290008F929F92AF92BF92CF92DF92EF92FF9286
:1012A0000F931F93CF93DF93CDB7DEB7CA1BDB0B32
:1012B0000FB6F894DEBF0FBECDBF09942A883988D7
:1012C00048885F846E847D848C849B84AA84B984DE
:1012D000C884DF80EE80FD800C811B81AA81B981EA
:1012E000CE0FD11D0FB6F894DEBF0FBECDBFED01FE
:1012F00008955058BB27AA270E9491090C94080909
:101300000E94FA0838F00E94010920F039F49F3F4A
:1013100019F426F40C94F7080EF4E095E7FB0C940E
:10132000F108E92F0E94190958F3BA1762077307E9
:101330008407950720F079F4A6F50C943B090EF488
:10134000E0950B2EBA2FA02D0B01B90190010C01D5
:10135000CA01A0011124FF27591B99F0593F50F4ED
:10136000503E68F11A16F040A22F232F342F442745
:10137000585FF3CF469537952795A795F04053953D
:10138000C9F77EF41F16BA0B620B730B840BBAF00D
:101390009150A1F0FF0FBB1F661F771F881FC2F778
:1013A0000EC0BA0F621F731F841F48F4879577958C
:1013B0006795B795F7959E3F08F0B0CF9395880F46
:1013C00008F09927EE0F9795879508950E94FA09DE
:1013D0000C9408090E94010958F00E94FA0840F094
:1013E00029F45F3F29F00C94F10851110C943C0949
:1013F0000C94F7080E94190968F39923B1F3552357
:1014000091F3951B550BBB27AA2762177307840717
:1014100038F09F5F5F4F220F331F441FAA1FA9F3AD
:1014200035D00E2E3AF0E0E832D091505040E6959B
:10143000001CCAF72BD0FE2F29D0660F771F881FFC
:10144000BB1F261737074807AB07B0E809F0BB0BEF
:10145000802DBF01FF2793585F4F3AF09E3F510503
:1014600078F00C94F1080C943C095F3FE4F3983E4B
:10147000D4F3869577956795B795F7959F5FC9F7EC
:10148000880F911D9695879597F90895E1E0660F6D
:10149000771F881FBB1F621773078407BA0720F0E6
:1014A000621B730B840BBA0BEE1F88F7E09508954F
:1014B00029F416F00C94F1080C943B090C94F708ED
:1014C0000E942109A8F39638A0F707F80F92E89434
:1014D0002BE33AEA48EB5FE70E949A080F920F92DB
:1014E0000F924DB75EB70F920E94360BE8E6F0E020
:1014F0000E94C80A4F915F91EF91FF91E595EE1F11
:10150000FF1F49F0FE57E0684427EE0F441FFA958D
:10151000E1F74195550B0E94000B0F9007FE0C94CC
:10152000F40A08950E94990A6894B1110C943C0938
:1015300008950E94210988F09F5798F0B92F9927A4
:10154000B751B0F0E1F0660F771F881F991F1AF0AE
:10155000BA95C9F714C0B13091F00E943B09B1E0CF
:1015600008950C943B09672F782F8827B85F39F0CE
:10157000B93FCCF3869577956795B395D9F73EF447
:1015800090958095709561957F4F8F4F9F4F0895EF
:10159000DF93CF931F930F93FF92EF92DF927B0124
:1015A0008C01689406C0DA2EEF010E949708FE01B4
:1015B000E894A5912591359145915591A6F3EF01B8
:1015C0000E949109FE019701A801DA9469F7DF9062
:1015D000EF90FF900F911F91CF91DF9108950E949E
:1015E000600808F48FEF08959B01AC0160E070E0A3
:1015F00080E89FE30C94E6090C94F1080C946A0BC4
:101600000E942109D8F39923C9F3940F511DA3F324
:101610009150504094F059F0882332F0660F771FB4
:10162000881F91505040C1F79E3F51052CF7880FFD
:10163000911D9695879597F908955F3FACF0983E78
:101640009CF0BB27869577956795B79508F4B160B0
:101650009395C1F7BB0F58F711F460FFE8CF6F5FA8
:101660007F4F8F4F9F4FE3CF0C943C09FA01DC0171
:10167000AA0FBB1F9B01AC01BF5728F422273327B9
:101680004427507820C0B75190F4AB2F00244695E2
:1016900037952795011CA395D2F3002071F0220FF6
:1016A000331F441FB395DAF30ED00C9479096130DF
:1016B0007105A0E88A07B94630F49B01AC016627A2
:1016C000772788279078309621F0208331834283D2
:1016D000538308959F3F31F0915020F4879577957B
:1016E0006795B795880F911D9695879597F90895F9
:1016F000EE0FFF1F0590F491E02D09940F931F93B7
:10170000CF93DF938230910510F482E090E0E09176
:101710009804F091990420E030E0A0E0B0E0309728
:1017200019F1408151810281138148175907C8F08E
:101730008417950769F4109731F012960C9312975D
:1017400013961C9327C0009398041093990422C009
:101750002115310519F04217530718F49A01BD01FC
:10176000EF01DF01F801DBCF21153105F9F0281B6E
:10177000390B2430310580F48A819B816115710514
:1017800021F0FB019383828304C09093990480939A
:101790009804FE01329644C0FE01E20FF31F8193CC
:1017A000919322503109398328833AC020919604BD
:1017B00030919704232B41F420910A0130910B01C1
:1017C00030939704209396042091080130910901E9
:1017D0002115310541F42DB73EB740910C015091D0
:1017E0000D01241B350BE0919604F0919704E2174C
:1017F000F307A0F42E1B3F0B2817390778F0AC0134
:101800004E5F5F4F2417350748F04E0F5F1F509310
:101810009704409396048193919302C0E0E0F0E036
:10182000CF01DF91CF911F910F910895CF93DF9357
:10183000009709F481C0FC01329713821282A091B3
:101840009804B0919904109781F420813181820F1E
:10185000931F20919604309197042817390751F56A
:10186000F0939704E093960467C0ED0120E030E028
:10187000CE17DF0740F44A815B819E014115510577
:10188000F1F0EA01F5CFD383C28340815181840F07
:10189000951FC817D90759F488819981840F951F1E
:1018A0000296918380838A819B8193838283211511
:1018B000310529F4F0939904E09398043DC0E901BF
:1018C000FB83EA8349915991C40FD51FEC17FD079B
:1018D00061F480819181840F951F0296E9019983BB
:1018E0008883828193819B838A83E0E0F0E0129673
:1018F0008D919C911397009719F0FD01DC01F7CFB2
:101900008D919C9111979D012E5F3F4F820F931FE8
:1019100020919604309197042817390769F430977D
:1019200029F4109299041092980402C01382128232
:10193000B0939704A0939604DF91CF910895A0E00F
:10194000B0E0E5EAFCE00C944609EC01009721F4D4
:10195000CB010E947E0BB4C0FC01E60FF71F9C0177
:1019600022503109E217F30708F4A8C0D9010D91FC
:101970001C91119706171707B0F00530110508F4F0
:101980009BC0C80104978617970708F495C00250BA
:101990001109061B170B019311936D937C93CF01D3
:1019A0000E94160C89C05B01A01AB10A4C01800E7E
:1019B000911EA0919804B0919904612C712CE12C96
:1019C000F12C109709F446C08D919C911197A815A0
:1019D000B905B1F56C0142E0C40ED11CCA14DB0498
:1019E00078F14C018A189B08640142E0C40ED11CB6
:1019F0001296BC9012971396AC91B5E0CB16D10419
:101A000040F0B282A38391828082D9016D937C934E
:101A100009C00E5F1F4F800F911FF90191838083D2
:101A2000EB2DFA2FE114F10431F0D7011396FC935A
:101A3000EE93129741C0F0939904E09398043CC050
:101A40006816790608F43C017D0112960D90BC9150
:101A5000A02DB7CF8091960490919704881699068F
:101A6000E1F466167706C8F48091080190910901A7
:101A7000009741F48DB79EB740910C0150910D0134
:101A8000841B950BE817F907C8F4F0939704E093CB
:101A90009604F901718360830FC0CB010E947E0B15
:101AA0007C01009759F0A801BE010E946A0DCE0189
:101AB0000E94160CC70104C0CE0102C080E090E075
:101AC000CDB7DEB7EEE00C94620981E090E0F894C7
:101AD0000C947A0DFB01DC0102C001900D92415083
:101AE0005040D8F70895FB01DC0101900D920020D1
:101AF000E1F7089510E0C1E7D0E004C0FE010E94C4
:0E1B0000780B2196C237D107C9F7F894FFCFB2
:101B0E00050000000C00030000009A048000000095
:101B1E00000033019C00CA008001FB00D900ED00DB
:101B2E00202D2D20000D0A0048656C6C6F00576F3C
:041B3E00726C640061
:00000001FF
